:02000000F228E4
:1000060083169C1C0828000003282A089B002B083E
:100016009A009C131C150B08D0008B1355309D00BD
:10002600AA309D009C14D01B1A288B131B288B17F3
:040036001C11080091
:10003A008312290883169B009C131C141A08D000EB
:02004A000800AC
:10004C0083128514043085064130DC00EE30DD006F
:10005C00DD0B2E28DC0B2E28000004308506023028
:10006C00DB000430DC00BA30DD00DD0B3B28DC0BA0
:0C007C003B28DB0B3B280000851008002F
:0C008800831226088A0025088200080068
:100094008312051285122008D000D00D5010D00D07
:1000A4005010D00D5010D00D501050088504AA01E6
:0800B4002008AB000320080046
:1000BC0083120510230885040130AA002308AB0025
:0400CC000320080005
:1000D0008316810195140730831299000830831626
:1000E00085008312851085150511A9011D20500872
:1000F000A0000130A9001D205008A300831285151F
:100100002008033C03188528A0012308013C03189C
:100110008A28A3012008A9004A202308A9005E20FC
:1001200026200830831696008B158B13A801053006
:1001300028020318B228831205154130DC00EE3086
:10014000DD00DD0BA128DC0BA128000005114130EA
:10015000DC00EE30DD00DD0BAB28DC0BAB28000053
:06016000A80A9728080020
:06016600831205110800E0
:10016C000430831285068230DC00DD30DD00DD0BCF
:10017C00BD28DC0BBD280000000004308506823051
:10018C00DC00DD30DD00DD0BC928DC0BC9280000EC
:04019C000000080057
:1001A0008312A30A01302305D0005008A300500891
:0601B000A9005E2008001A
:1001B6008312A00A03302005D0005008A000500882
:0601C600A9004A20080018
:1001CC0044208A110A128000840AA50A0319A60A7F
:0801DC00D003031DE628080012
:1001E4008312A001A101A201A301A4016820B320EC
:1001F4009529831285190A29A10A8230DC00DD3091
:10020400DD00DD0B0329DC0B03290000000020299D
:100214002208003C031813290130A400A701A101FE
:100224002029A10163000B108230DC00DD30DD00E9
:10023400DD0B1A29DC0B1A290000000021080A3CF6
:1002440003182729A20AA101B620AE29482904309F
:10025400A40065290230A40065290530A40065299D
:100264000330A400A00165290330A4000130A000DC
:1002740065290330A4000230A00065290330A400DE
:100284000330A00065290430A40065292208013A3E
:10029400031929292208023A03192C292208033AAE
:1002A40003192F292208043A031932292208053A8E
:1002B400031936292208063A03193B292208073A6A
:1002C400031940294529A201AE290430A400DB20EA
:1002D4001A30DC00F830DD00DD0B6E29DC0B6E29F2
:1002E4000000AE290430A400D0201A30DC00F8301D
:1002F400DD00DD0B7B29DC0B7B290000AE290430FB
:10030400A4002008A9004A201A30DC00F830DD00DF
:10031400DD0B8A29DC0B8A290000AE29A4012620E2
:10032400A101AE29AE292408003A0319FB282408A8
:10033400013A031928292408023A031967292408D1
:10034400053A031974292408033A03198129240856
:0C035400043A031990299429F928AF29D4
:02400E009431EB
:00000001FF
