:020000003529A0
:1000060083169C1C0828000003282C089B002D083A
:100016009A009C131C150B08D0008B1355309D00BD
:10002600AA309D009C14D01B1A288B131B288B17F3
:040036001C11080091
:10003A008312051285122408D000D00D5010D00D5D
:10004A005010D00D5010D00D501050088504AC013E
:08005A002408AD00032008009A
:0E00620002308312AC002008AD00032008001D
:0E00700003308312AC002608AD000320080008
:10007E0083122B0883169B009C131C141A08D000A5
:02008E00080068
:1000900083120510250885040130AC002508AD0049
:0400A0000320080031
:1000A4008312851420080319592804308506023068
:1000B400DB000430DC00BA30DD00DD0B5F28DC0B34
:1000C4005F28DB0B5F280000200803196B2804302D
:1000D40085064130DC00EE30DD00DD0B6F28DC0BE3
:0800E4006F28000085100800E0
:0C00EC00831228088A0027088200080000
:0600F8008312051108004F
:1000FE008312A40A03302405D0005008A40050082F
:06010E00AB001D200800FB
:100114000430831285068230DC00DD30DD00DD0B27
:100124009128DC0B91280000000004308506823001
:10013400DC00DD30DD00DD0B9D28DC0B9D2800009C
:0401440000000800AF
:100148008312A60A01302605D0005008A6005008E0
:06015800AB003820080096
:10015E008316810195140730831299000830831697
:10016E0085008312851085150511AB013F205008BF
:10017E00A4000130AB003F205008A5000230AB00B8
:10018E003F205008A0000330AB003F205008A600CF
:10019E00831285152408033C0318D628A4012508CC
:1001AE00013C0318DB28A5012008013C0318E128B7
:1001BE000130A0002608013C0318E7280130A600F4
:1001CE002408AB001D202508AB0048205220083023
:1001DE00831696008B158B13260803191229AA0174
:1001EE0005302A0203181229831205154130DC004E
:1001FE00EE30DD00DD0B0129DC0B012900000511BD
:10020E004130DC00EE30DD00DD0B0B29DC0B0B2961
:08021E000000AA0AF7280800FD
:100226008312A00A01302005D0005008A000500813
:06023600AB0031200800BE
:10023C0076208A110A128000840AA70A0319A80AD8
:08024C00D003031D1E29080068
:100254008312A50A01302505D0005008A5005008D6
:06026400AB004820080079
:10026A0001308312A000A101A201A301A401A501EA
:10027A000130A600AF207C20042A83128519512957
:10028A00A10A8230DC00DD30DD00DD0B4A29DC0BFF
:10029A004A290000000067292208003C03185A294D
:1002AA000130A300A901A1016729A10163000B1074
:1002BA008230DC00DD30DD00DD0B6129DC0B6129D9
:1002CA000000000021080A3C03186E29A20AA101B5
:1002DA008A20252A95290430A300BA290230A300CE
:1002EA00BA290530A300BA290330A300A401BA2908
:1002FA000330A3000130A400BA290330A30002305E
:10030A00A400BA290330A3000330A400BA29063096
:10031A00A300BA290730A300BA290430A300BA29D6
:10032A002208013A031970292208023A031973298B
:10033A002208033A031976292208043A031979296B
:10034A002208053A03197D292208063A0319822947
:10035A002208073A031987292208083A03198C291F
:10036A002208093A03198F299229A201252A043061
:10037A00A30013211A30DC00F830DD00DD0BC3299D
:10038A00DC0BC3290000252A0430A300A4201A305C
:10039A00DC00F830DD00DD0BD029DC0BD0290000B1
:1003AA00252A0430A3007F201A30DC00F830DD0053
:1003BA00DD0BDD29DC0BDD290000252A0430A30032
:1003CA002A211A30DC00F830DD00DD0BEA29DC0BCB
:1003DA00EA290000252A0430A3002408AB001D20C6
:1003EA001A30DC00F830DD00DD0BF929DC0BF929C5
:1003FA000000252AA3015220A101252A252A230823
:10040A00003A031942292308013A03196F292308DC
:10041A00063A0319BC292308073A0319C9292308EC
:10042A00023A0319D6292308053A0319E3292308AE
:10043A00033A0319F0292308043A0319FF29032A66
:04044A004029262AF5
:02400E009431EB
:00000001FF
