:02000000942941
:1000060083169C1C0828000003282E089B002F0836
:100016009A009C131C150B08D0008B1355309D00BD
:10002600AA309D009C14D01B1A288B131B288B17F3
:040036001C11080091
:0C003A0083122A088A00290882000800AE
:0E00460005308312AE002008AF000320080032
:0E00540004308312AE002608AF00032008001F
:1000620083122D0883169B009C131C141A08D000BF
:02007200080084
:1000740083120510270885040130AE002708AF005D
:04008400032008004D
:0E00880003308312AE002208AF0003200800F0
:100096008312051285122808D000D00D5010D00DFD
:1000A6005010D00D5010D00D501050088504AE01E0
:0800B6002808AF000320080038
:1000BE00831285142108031969282008031D692855
:1000CE00043085060230DB000430DC00BA30DD007F
:1000DE00DD0B6F28DC0B6F28DB0B6F28000021086F
:1000EE0003197E282008031D7E2804308506413022
:1000FE00DC00EE30DD00DD0B8228DC0B82280000F8
:04010E008510080050
:0E01120002308312AE002108AF000320080067
:100120008312A80A03302805D0005008A800500800
:06013000AD004B200800A9
:10013600831203135008D100D0010830DC005108A7
:10014600D40C0318AA28DC0BA328D1010034031011
:10015600AF28D40C0318D107D10CD00CDC0BAC287B
:0201660008008F
:100168008312A10A01302105D0005008A1005008CF
:06017800AD008920080023
:10017E008312A20A01302205D0005008A2005008B6
:06018E00AD004420080052
:100194008312A70A01302705D0005008A700500891
:0601A400AD003A20080046
:1001AA008312A60A01302605D0005008A60050087E
:0601BA00AD002A20080040
:1001C0001D208A110A128000840AA90A0319AA0AAA
:0801D000D003031DE028080024
:1001D80083122008031DF228043085068230DC00D3
:1001E800DD30DD00DD0BF628DC0BF6280000000012
:1001F8002008031D0129043085068230DC00DD302B
:10020800DD00DD0B0529DC0B0529000000000800D6
:100218008316810107308312990008308316850000
:100228008312851085150511AD0131205008A800ED
:100238000130AD0031205008A7000230AD00312058
:100248005008A1000330AD0031205008A20004304E
:10025800AD0031205008A6000530AD00312050080F
:10026800A000831285152808033C03183C29A8011F
:100278002708013C03184129A7012108013C03185C
:1002880047290130A1002208013C03184D290130FB
:10029800A2002608013C03185229A6012008013CA7
:1002A80003185729A0012808AD004B202708AD00E6
:1002B8003A205F200830831696008B158B1322088E
:1002C800031985292008031D8529AC0105302C0256
:1002D80003188529831205154130DC00EE30DD0056
:1002E800DD0B7429DC0B7429000005114130DC009A
:1002F800EE30DD00DD0B7E29DC0B7E290000AC0A28
:040308006A29080056
:10030C008312A00A01302005D0005008A00050082C
:06031C00AD0023200800E3
:0603220083120511080022
:100328008312A0010130A1000130A200A301A401A1
:10033800A501A601A701A8010C219121A52A8312D4
:100348008519B229A30A8230DC00DD30DD00DD0B1F
:10035800AB29DC0BAB2900000000C8292408003CAD
:100368000318BB290130A500AB01A301C829A301CB
:1003780063000B108230DC00DD30DD00DD0BC229AC
:10038800DC0BC229000000002608D0000A30D40087
:100398009B2050080A3ED20000300318013E510746
:1003A800D30080305306D00080305002031DDE2970
:1003B800230852020318E7290B3024020318E52901
:1003C800A40AA301EC20CE2A142A0430A500412A4D
:1003D8000230A500412A0530A500412A0330A500B6
:1003E800A801412A0330A5000130A800412A0330A2
:1003F800A5000230A800412A0330A5000330A80058
:10040800412A0630A500412A0730A500412A0830B4
:10041800A500412A0930A500412A0430A500412A37
:100428002408013A0319E9292408023A0319EC2996
:100438002408033A0319EF292408043A0319F22976
:100448002408053A0319F6292408063A0319FB2952
:100458002408073A0319002A2408083A0319052A28
:100468002408093A0319082A24080A3A03190B2A06
:1004780024080B3A03190E2A112AA401CE2A0430A3
:10048800A500B4201A30DC00F830DD00DD0B4A2A64
:10049800DC0B4A2A0000CE2A0430A500BF201A30FF
:1004A800DC00F830DD00DD0B572ADC0B572A000092
:1004B800CE2A0430A500D5201A30DC00F830DD0043
:1004C800DD0B642ADC0B642A0000CE2A0430A50068
:1004D80086211A30DC00F830DD00DD0B712ADC0BD8
:1004E800712A0000CE2A0430A50090201A30DC00C2
:1004F800F830DD00DD0B7E2ADC0B7E2A0000CE2AD8
:100508000430A500CA201A30DC00F830DD00DD0B0D
:100518008B2ADC0B8B2A0000CE2A0430A500280881
:10052800AD004B201A30DC00F830DD00DD0B9A2AD4
:10053800DC0B9A2A0000CE2AA5015F20A301CE2A4F
:10054800CE2A2508003A0319A3292508013A0319D8
:10055800E8292508063A0319432A2508073A031902
:10056800502A2508083A03195D2A2508093A03196B
:100578006A2A2508023A0319772A2508053A031931
:10058800842A2508033A0319912A2508043A0319ED
:08059800A02AA42AA129CF2A00
:02400E009431EB
:00000001FF
