:020000006A296B
:1000060083169C1C0828000003282D089B002E0838
:100016009A009C131C150B08D0008B1355309D00BD
:10002600AA309D009C14D01B1A288B131B288B17F3
:040036001C11080091
:0E003A0004308312AD002708AE00032008003A
:1000480083122C0883169B009C131C141A08D000DA
:0200580008009E
:0E005A0003308312AD002008AE000320080022
:0C006800831229088A0028088200080082
:0E00740002308312AD002108AE000320080008
:100082008312051285122508D000D00D5010D00D14
:100092005010D00D5010D00D501050088504AD01F5
:0800A2002508AE000320080050
:1000AA0083128514210803195C280430850602305E
:1000BA00DB000430DC00BA30DD00DD0B6228DC0B2B
:1000CA006228DB0B62280000210803196E2804301D
:1000DA0085064130DC00EE30DD00DD0B7228DC0BDA
:0800EA007228000085100800D7
:1000F20083120510260885040130AD002608AE00E3
:0401020003200800CE
:0601060083120511080040
:10010C0083168101951407308312990008308316E9
:10011C0085008312851085150511AC01242050082B
:10012C00A5000130AC0024205008A6000230AC0021
:10013C0024205008A1000330AC0024205008A0005B
:10014C000430AC0024205008A70083128515250824
:10015C00033C0318B228A5012608013C0318B72854
:10016C00A6012108013C0318BD280130A10020087C
:10017C00013C0318C3280130A0002708013C0318D8
:10018C00C828A7012508AC0041202608AC0079201E
:10019C0055200830831696008B158B1320080319F5
:1001AC00F328AB0105302B020318F3288312051535
:1001BC004130DC00EE30DD00DD0BE228DC0BE22808
:1001CC00000005114130DC00EE30DD00DD0BEC28C9
:0C01DC00DC0BEC280000AB0AD82808005F
:1001E8008312A50A03302505D0005008A500500841
:0601F800AC0041200800EC
:1001FE000430831285068230DC00DD30DD00DD0B3D
:10020E000629DC0B0629000000000430850682302A
:10021E00DC00DD30DD00DD0B1229DC0B12290000C5
:04022E0000000800C4
:100232008312A10A01302105D0005008A100500804
:06024200AC003A200800A8
:100248008312A70A01302705D0005008A7005008DC
:06025800AC001D200800AF
:10025E00831203135008D100D0010830DC0051087E
:10026E00D40C03183E29DC0B3729D10100340310BE
:10027E004329D40C0318D107D10CD00CDC0B402928
:02028E00080066
:1002900034208A110A128000840AA80A0319A90AC4
:0802A000D003031D48290800EA
:1002A8008312A60A01302605D0005008A60050087F
:0602B800AC0079200800F3
:1002BE008312A00A01302005D0005008A00050087B
:0602CE00AC002D20080029
:1002D40001308312A0000130A100A201A301A401F6
:1002E400A501A601A70186208320622A831285190D
:1002F4008729A20A8230DC00DD30DD00DD0B802995
:10030400DC0B8029000000009D292308003C031811
:1003140090290130A400AA01A2019D29A201630031
:100324000B108230DC00DD30DD00DD0B9729DC0BA7
:100334009729000000002708D0000A30D4002F219C
:1003440050080A3ED20000300318013E5107D30082
:1003540080305306D00080305002031DB329220898
:1003640052020318B829A30AA201FF20872AE2290E
:100374000430A4000B2A0230A4000B2A0530A40088
:100384000B2A0330A400A5010B2A0330A40001307A
:10039400A5000B2A0330A4000230A5000B2A033069
:1003A400A4000330A5000B2A0630A4000B2A073052
:1003B400A4000B2A0830A4000B2A0430A4000B2A42
:1003C4002308013A0319BA292308023A0319BD295B
:1003D4002308033A0319C0292308043A0319C3293B
:1003E4002308053A0319C7292308063A0319CC2917
:1003F4002308073A0319D1292308083A0319D629EF
:100404002308093A0319D92923080A3A0319DC29CC
:10041400DF29A301872A0430A40019211A30DC0043
:10042400F830DD00DD0B142ADC0B142A0000872AC7
:100434000430A4005F211A30DC00F830DD00DD0B4D
:10044400212ADC0B212A0000872A0430A40024215D
:100454001A30DC00F830DD00DD0B2E2ADC0B2E2AEE
:100464000000872A0430A400F4201A30DC00F8309D
:10047400DD00DD0B3B2ADC0B3B2A0000872A04301D
:10048400A40054211A30DC00F830DD00DD0B482ACA
:10049400DC0B482A0000872A0430A4002508AC009D
:1004A40041201A30DC00F830DD00DD0B572ADC0B6C
:1004B400572A0000872AA4015520A201872A872AE7
:1004C4002408003A031978292408013A0319B929A0
:1004D4002408063A03190D2A2408073A03191A2A8C
:1004E4002408083A0319272A2408023A0319342A4B
:1004F4002408053A0319412A2408033A03194E2A09
:0E0504002408043A03195D2A612A7629882A00
:02400E009431EB
:00000001FF
